:03000000020FE20A
:0C0FE200787FE4F6D8FD758138020D4DD3
:100C77007F057E00120F2BE4FD7F33120D0B7F02E1
:100C87007E00120F2BE4FD7F32120D0B7F027E00D8
:100C9700120F2BE4FD7F28120D0B7F027E00120F2F
:100CA7002BE4FD7F0C120D0B7F017E00120F2BE44E
:0D0CB700FD7F06120D0B7F017E00020F2B4A
:100D0B00ED24FF92A08FF0A2F492A4A2F592A5A2DB
:100D1B00F692A6A2F792A77F017E00120F2B120F5D
:100D2B00D0A2F092A4A2F192A5A2F292A6A2F39263
:100D3B00A77F017E00120F2B120FD07F017E0002C6
:020D4B000F2B6C
:020EE0008F275A
:100EE200E4F529C3E5299410748094805016AF2745
:100EF200120DF88F28E528600B7D01120D0B0527D6
:040F0200052980DF5E
:010F060022C8
:100FD000D2A17F017E00120FEEC2A17F017E00022E
:020FE0000FEE12
:100F8900E4FD7F01120D0B7F027E00120F2BE4FDA1
:0C0F99007F02120D0B7F027E00020F2B66
:100F2B00E4FDFCE4FBFAC3EB9FEA9E50070BBB000E
:0F0F3B00010A80F20DBD00010CED641E4C70E444
:010F4A002284
:0C0FEE00EF4E6007EF1F70F81E80F52228
:100FBD007F027E00120FEED2A37F027E00120FEE93
:030FCD00C2A3229A
:100F4B00C2A3D2A27F027E00120FEED2A37F027E3B
:100F5B0000120FEEC2A27F027E00120FEEC2A3227E
:100F6B00C2A37F027E00120FEEC2A27F027E00128E
:0E0F7B000FEED2A37F027E00120FEED2A22252
:100F07008FF0E4F538C3E538940874809480501165
:100F1700A2F792A2120FBDE5F025E0F5F0053880A3
:030F2700E4D2A26F
:010F2A0022A4
:100D8800D2A2E4F5F0F538C3E5389408748094806D
:100D980050227F027E00120FEED2A37F037E001244
:100DA8000FEEE5F025E0F5F0A2A2E43342F0C2A38D
:080DB800053880D3C2A2AFF0A0
:010DC0002210
:080FFA00C2A2120FBDD2A22217
:08100200D2A2120FBDD2A322FD
:100EB7008F2D8D2E120F4B7FA0120F07120FFAAF37
:100EC7002D120F07120FFAAF2E120F07120FFA1279
:090ED7000F6B7F067E00020F2B59
:080E8C008B278A2889298D2A91
:100E9400E4F52CAB27AA28A929852C827583001296
:100EA4000E5FF52BFDAF2A120EB7052A052CE52B94
:020EB40070E1EB
:010EB6002219
:020DF8008F3634
:100DFA00120F4B7FA0120F07120FFAAF36120F070E
:100E0A00120FFA120F4B7FA1120F07120FFA120DCF
:100E1A00888F37121002120F6B7F047E00120F2B7D
:020E2A00AF37E0
:010E2C0022A3
:100D4D00E4F5B0F5A07590FF120C77120DC1E4F526
:100D5D0009C3E509940D748094805012740A250915
:100D6D00F8E4F674182509F8E4F6050980E3E4F5CE
:0B0D7D00097F63120FA5120AC180FB62
:100AC100C2B0D2B1D2B2D2B32090167FDC7E001276
:100AD1000F2B7F311208007FEE7E02120F2B309018
:100AE100FD2091167FDC7E00120F2B7F3212080051
:100AF1007FEE7E02120F2B3091FD2092167FDC7E5D
:100B010000120F2B7F331208007FEE7E02120F2B93
:100B11003092FD2093167FDC7E00120F2B7F411255
:100B210008007FEE7E02120F2B3093FDD2B0C2B1CE
:100B3100D2B2D2B32090167FDC7E00120F2B7F340D
:100B41001208007FEE7E02120F2B3090FD209116CD
:100B51007FDC7E00120F2B7F351208007FEE7E02B4
:100B6100120F2B3091FD2092167FDC7E00120F2B8D
:100B71007F361208007FEE7E02120F2B3092FD208D
:100B8100931B7FDC7E00120F2B7F421208007FEE49
:100B91007E02120F2B3093FD7F62120800D2B0D279
:100BA100B1C2B2D2B32090167FDC7E00120F2B7F30
:100BB100371208007FEE7E02120F2B3090FD20913C
:100BC100167FDC7E00120F2B7F381208007FEE7E2D
:100BD10002120F2B3091FD2092167FDC7E00120F46
:100BE1002B7F391208007FEE7E02120F2B3092FD0F
:100BF1002093167FDC7E00120F2B7F431208007FAB
:100C0100EE7E02120F2B3093FDD2B0D2B1D2B2C21E
:100C1100B32090167FDC7E00120F2B7F2A12080072
:100C21007FEE7E02120F2B3090FD2091167FDC7E2D
:100C310000120F2B7F301208007FEE7E02120F2B65
:100C41003091FD2092167FDC7E00120F2B7F231244
:100C510008007FEE7E02120F2B3092FD2093167F4B
:100C6100DC7E00120F2B7F441208007FEE7E021201
:060C71000F2B3093FD2261
:100800008F25E52564236003020981E509603FE542
:05081000086448703986
:10081500120CC48F26120F89E526B4311A7F1012E7
:100825000EE07F66120FA57F287E23120F2B7F63B4
:10083500120FA575085422E52664306003020AC02C
:080845007F20120EE075085837
:10084D0022E508B4431F120F897F30120EE0E4FD3C
:10085D007FC0120D0B7FC0120EE0E4FD7F0F120D55
:10086D000B75084F22E508644F7065E5096061124C
:10087D000CC4EF6431703A120F897F40120EE0E420
:10088D00FD7FC0120D0B7FC0120EE0E4FD7F0F1235
:10089D000D0B75084EE4F509C3E509940D748094AC
:1008AD0080500B74182509F8E4F6050980EA020A50
:1008BD008A120F89E4FD7F0C120D0B7F20120EE0C2
:1008CD00E4FD7FC0120D0B7F50120EE0750857220C
:0608DD00E508644E7037CF
:1008E300120F897F60120EE0E4FD7FC0120D0B7FB3
:1008F300C0120EE0E4F526E526C3950950127418DC
:100903002526F8E6FF740A2526F8A607052680E7BC
:06091300E4F50975084639
:0A09190022E50864466003020AC0EC
:100923007526E0120E2DEF64317019120F897B00CA
:100933007A0079187DE0120E8CE4FD7F0C120D0B0A
:100943007F70800C120F89E4FD7F0C120D0B7FD09A
:10095300120EE0E4FD7FC0120D0B7F80120EE075D6
:10096300084AE4F509C3E509940D748094804003B3
:0E097300020AC0740A2509F8E4F6050980E7B7
:10098100E525B4411CE50864546003020AC07F7286
:10099100120FA57F287E23120F2B7F63120FA580D4
:1009A10077E52564426006E52564627060E50864C8
:1009B100486012E508644F600CE508644E6006E586
:0509C1000864467048C7
:1009C600E52564427023FD7FC4120D0BE4F526E590
:1009D60026C395094003020AC074182526F8E6FFC7
:1009E6007D01120D0B052680E6E4FD7FC4120D0B7A
:1009F600E4F526E526C395094003020AC07D017F7A
:080A0600C8120D0B052680EB60
:100A0E00E525B44409E50864546003020DC1E525EB
:100A1E00642A703ED3E509940074809480500302DA
:100A2E000AC0E50864486012E508644F600CE508EA
:100A3E00644E6006E50864467078E4FD7F10120D82
:100A4E000B7D017F20120D0BE4FD7F10120D0B1597
:100A5E000922E52564437028E50864487054120F96
:100A6E0089E4FD7F0C120D0B7F90120EE0E4FD7FEA
:100A7E00C0120D0B7FA0120EE0750843E4F509229B
:100A8E00C3E509940C748094805027E5086448608F
:100A9E0011E508644F600BE508644E6005E508B487
:100AAE0046107D017FC8120D0B74182509F8A62576
:030ABE0005092205
:100CC4007534E0E4F535AF34120DF874272535F8A2
:100CD400A60705350534EF70ED1535E53565097062
:100CE40023F535E535C39509501774272535F8E6FE
:100CF400FF74182535F8E66F60037F3022053580D0
:060D0400E27F31227F3086
:010D0A0022C6
:100E2D00E4FF740A2FF8E660030F80F6EF65097092
:100E3D001EFFEFC395095014740A2FF8E6FE7418BF
:100E4D002FF8E66E60037F30220F80E67F31227F20
:010E5D003064
:010E5E002271
:100DC100E4FFEFC3940D74809480500974182FF8D8
:100DD100E4F60F80EDE4F509120F897FB0120EE001
:100DE100E4FD7FC0120D0B7FC0120EE0E4FD7F0F0A
:060DF100120D0B7508480D
:010DF70022D9
:100FA500BF6605D2B4C2B522BF7205C2B4D2B5229E
:080FB500BF6304C2B4C2B522FF
:100E5F00BB010CE58229F582E5833AF583E0225048
:100E6F0006E92582F8E622BBFE06E92582F8E22292
:0D0E7F00E58229F582E5833AF583E49322AC
:00000001FF
